:020000040800F2
:10000000884500200D100008A9060008AB0600086E
:10001000AF060008B3060008B7060008000000009D
:10002000000000000000000000000000BB06000807
:10003000BD060008000000006FD60008990D0008FA
:1000400027100008271000082710000827100008B4
:1000500027100008271000082710000827100008A4
:100060002710000827100008271000082710000894
:100070002710000827100008271000082710000884
:100080002710000827100008271000082710000874
:100090002710000827100008271000082710000864
:1000A0002710000827100008271000082710000854
:1000B00027100008C70A00082710000827100008AA
:1000C0002710000827100008271000082710000834
:1000D000271000087B0F00082710000827100008D1
:1000E0002710000827100008271000082710000814
:1000F0002710000827100008271000082710000804
:1001000027100008271000080D0C00082710000811
:1001100027100008271000082710000827100008E3
:1001200027100008271000082710000827100008D3
:1001300000F002F800F04AF80AA090E8000C8244AF
:100140008344AAF10107DA4501D100F03FF8AFF28C
:10015000090EBAE80F0013F0010F18BFFB1A43F0A5
:1001600001031847E4DC000004DD0000103A24BF5E
:1001700078C878C1FAD8520724BF30C830C144BF0C
:1001800004680C607047000000230024002500264E
:10019000103A28BF78C1FBD8520728BF30C148BFEA
:1001A0000B60704766290DF01A8478290CF0C8811D
:1001B000002070471FB50CF0FBFC0400002000215C
:1001C0000DF0A2FAE0601FBD10B510BD0CF00CFEE2
:1001D0001146FFF7EFFF00F063F90CF02AFE03B4BD
:1001E000FFF7F2FF03BC00F06BFE000000240125C6
:1001F00000BF00BF15E00A2000F033FE1DB104F17E
:10020000280084B202E0A4F1280084B240F6340051
:10021000844200DD002504B901252146ED4802F0A5
:10022000F9FDE8E7002400BF00BF1FE0002000F058
:100230005FFB0446BCB1012C0AD0022C11D1E64868
:10024000006808B9012000E00020E349086009E0E7
:10025000E248006808B9012000E00020DF4908609A
:1002600000E000BF02E00A2000F0FBFDDEE70EB573
:1002700000BF11E00A21022000F0DDFB0146D8A0FA
:100280000CF052F902A900221346CDE90021012207
:10029000002108460BF061F9ECE70EB500BF19E04C
:1002A000D449D54800680DF077FAD349086008466C
:1002B00000680DF045FA044622460B46CFA00CF02C
:1002C00033F902A800210B460122CDE900100846AF
:1002D0000BF043F9E4E70EB500BF11E0BE4800683B
:1002E0006FEA0000CB49C1F8840102A84FF0000179
:1002F0000B464FF00102CDE9001008460BF02DF936
:10030000ECE730B58BB00446002500BF02F026FEB6
:100310000AA808F0ABFD0AAA0121084604F023FE52
:1003200000BF00BF00BF02F055FF054600BF00BF81
:10033000B9480078401CB849087000BF00BF284683
:1003400002F04CFF00BF00BF00BF0AA8032100223B
:100350000592CDE906210890104680210C22AF4B72
:10036000CDE90132CDE9031005200023AFF2990257
:10037000ABA10090AD4809F055F90AA8032100226D
:100380000592CDE906210890104680210C22A84B49
:10039000CDE90132CDE9031006200023AFF20512AA
:1003A000A4A10090A74809F03DF90AA80321002262
:1003B0000592CDE906210890104680210C22A24B1F
:1003C000CDE90132CDE9031007200023AFF261121D
:1003D0009EA10090A14809F025F90AA80321002256
:1003E0000592CDE906210890104680210C229C4BF5
:1003F000CDE90132CDE9031008200023AFF2DB1272
:1004000098A100909B4809F00DF90AA80321002249
:100410000592CDE906210890104680210C22964BCA
:10042000CDE90132CDE9031009200023AFF24322C8
:1004300092A10090954809F0F5F80AA994480AF0AD
:1004400061FC00BF00BF00BF02F0C4FE054600BF54
:1004500000BF71480078401E6F4908700846007858
:10046000A0B98C480088002809DD00BF00BF2846DD
:1004700002F0B4FE00BF00BF05F06CF90DE000BF54
:1004800000BF284602F0AAFE00BF06E000BF00BF82
:10049000284602F0A3FE00BF00BF00BF0BB030BD76
:1004A0008AB0002400F084FC4FF4A06000F0CEFD80
:1004B0004FF4E13000F012FD00F0F0F900F008FA1E
:1004C00000F060FA002140F6980000F00FFB09A848
:1004D00004F01AFB00BF00BF00BF02F07BFE044621
:1004E00000BF00BF4C480078401C4B49087000BF5B
:1004F00000BF204602F072FE00BF00BF00BF09A887
:10050000032100220592CDE90621089010464FF400
:1005100000713322604BCDE90132CDE90310032095
:100520000023AFF221225DA10090594809F07AF82A
:1005300000BF00BF00BF02F04DFE044600BF00BF79
:1005400035480078401E3449087008460078A0B944
:1005500050480088002809DD00BF00BF204602F097
:100560003DFE00BF00BF05F0F5F80DE000BF00BF85
:10057000204602F033FE00BF06E000BF00BF204669
:1005800002F02CFE00BF00BF00BF09A804F08BFDE5
:1005900000BFFEE70EB500BF1AE000200F4908605B
:1005A00002A84FF000010B464FF00102CDE9001008
:1005B00008460AF0D2FF01201649C1F8800102A8BE
:1005C00000210B460122CDE9001008460AF0C5FFC4
:1005D000E3E7000000040040848121428081214241
:1005E000B2E2CAD4414443B5C4D6B5CAC73A2025FD
:1005F000780D0A000AD7233C00000020666C6F616A
:10060000745F6E756DB5C4D6B5CEAA3A20252E346A
:10061000660D0A0000802142B80000206C0D002009
:100620006C656431207461736B000000A80C0020BD
:1006300030100020666C6F617420746573742074D0
:1006400061736B006C0F0020F8120020616463205E
:1006500074657374207461736B00000030120020A5
:10066000C01500206B657920746573742074617304
:100670006B000000F81400208818002070776D20AF
:1006800074657374207461736B000000C0170020E0
:10069000200100207C000020E401002073746172BE
:1006A00074207461736B0000704700BFFEE700BFE9
:1006B000FEE700BFFEE700BFFEE77047704700009F
:1006C0000CB50020019000906B48006840F4803029
:1006D0006949086000BF6848006800F40030009075
:1006E0000198401C0190009818B90198B0F5A06FCE
:1006F000F1D16148006810F4003F02D00120009061
:1007000001E0002000900098012842D15B48006879
:1007100040F01000594908600846006820F00300C6
:1007200008600846006840F00200086052484068CF
:10073000514948600846406848600846406840F4AF
:10074000806048600846406820F47C104860084695
:10075000406840F4E81048600846006840F0807047
:10076000086000BF4448006810F0007FFAD042489B
:10077000406820F00300404948600846406840F067
:100780000200486000BF3C48406800F00C000828A8
:10079000F9D10CBD10B5FFF793FF10BD10B5364869
:1007A000006840F001003449086008464068344958
:1007B00008403149486008460068324908402E49DF
:1007C00008600846006820F48020086008464068F9
:1007D00020F4FE0048604FF41F008860FFF7DAFF46
:1007E0004FF000602849086010BD10B500210020BE
:1007F0000022214B5B6803F00C0121B1042906D0D3
:10080000082928D107E0214B214C236027E01F4B0A
:100810001F4C236023E0184B5B6803F47010164BE9
:100820005B6803F48032022303EB904022B9194B3A
:100830004343174C23600DE00F4B5B6813F4003FFC
:1008400004D0144B4343124C236003E00F4B43434B
:100850000F4C236003E00D4B0D4C236000BF00BF25
:10086000054B5B68C3F303130B4CE15C084B1B683F
:10087000CB40074C236010BD001002400020024016
:100880000000FFF8FFFFF6FE08ED00E000127A001E
:100890000400002000093D000800002008B50121E7
:1008A000082001F05BF90220ADF8000010208DF85F
:1008B000030003208DF802006946044800F094FC10
:1008C0000221024800F03BFD08BD0000000C014081
:1008D00008B50121042001F041F90320ADF8000022
:1008E00048208DF803006946244800F07DFC08BDCF
:1008F00010B5044614B10120214908702048007841
:1009000058B301211D4800F000FD20B102211B4811
:1009100000F0FBFC08BB142000F0A3FA00201849EB
:1009200008700121154800F0F0FC40B900BF01211A
:10093000124800F0EAFC0028F9D0012010BD022185
:100940000E4800F0E2FCB0B900BF02210B4800F0F5
:10095000DCFC0028F9D00220F0E70121074800F074
:10096000D4FC012807D10221044800F0CEFC012864
:1009700001D1034908700020E0E7000000080140B1
:100980001800002000B587B001214FF4017001F07C
:10099000E5F84FF4004001F048F80420ADF80400F9
:1009A00000208DF8070001A92E4800F01DFC2E48FC
:1009B00001F03CF9002002908DF80C008DF80D003C
:1009C0004FF4602004900020059002208DF818005C
:1009D00002A9254801F051F90121234801F079F9D4
:1009E000214801F098F900BF1F4801F099F900284B
:1009F000FAD11D4801F09EF900BF1B4801F09FF994
:100A00000028FAD107B000BD10B504460723012223
:100A10002146154801F0C9F90121134801F099F95F
:100A200000BF0221104801F005FB0028F9D00E4854
:100A300001F022FA10BD2DE9F04107460C460025D1
:100A4000002608E03846FFF7DFFF0544052000F0E8
:100A500008FA701CC6B2A642F4DBB5FBF4F080B213
:100A6000BDE8F08100080140002401407FB5054643
:100A70000C460121022001F07EF8ADF80850ADF8D7
:100A800004400020ADF80A00ADF8060001A9B04806
:100A900001F0C8FB01224121AD4801F03AFF1D20C1
:100AA0008DF8000000208DF8010003208DF8020071
:100AB00001208DF80300684600F0CDFA0121A4481A
:100AC00001F00CFF7FBD10B50121A14802F0CFF964
:100AD00058B101219E4802F0DBF99E48006808B930
:100AE000012000E000209B49086010BD30B589B0AE
:100AF00005460C460121092001F030F801210220B1
:100B000001F039F80120ADF8200018208DF82300FD
:100B100003208DF8220008A98F4800F065FBADF88E
:100B20001850ADF814400020ADF81A00ADF81600CA
:100B300005A9874801F076FB7020ADF8040001207C
:100B4000ADF806000020ADF80A00ADF80C0001A9D0
:100B50007F4801F033FC08217D4802F005F80121AF
:100B60007B4801F0BBFF0121794801F0B7FE09B0D5
:100B700030BD30B585B005460C460121082000F097
:100B8000FAFF0121042000F0E9FF0120ADF8100078
:100B900028208DF8130004A9704800F025FB0121DE
:100BA0006E4800F0CEFBADF80850ADF804400020D0
:100BB000ADF80A00ADF8060001A9694801F032FB62
:100BC0000020684908804880012088800020C88073
:100BD0000881634801F0B9FD0121614801F07EFE02
:100BE000012203215E4801F094FE32208DF80000BE
:100BF00002208DF8010000208DF8020001208DF800
:100C00000300684600F027FA05B030BD10B556481D
:100C1000007810F0800F4CD10121514802F027F9E3
:100C2000D0B15148007810F0400F15D04E480078F0
:100C300000F03F003F280AD14B48007840F0800088
:100C4000494908704FF6FF704849088004E046485B
:100C50000078401C444908700221414802F007F91D
:100C600038B34148007810F0400F0FD03E4800786C
:100C700040F080003C490870394802F0D9F83B49FF
:100C800008800021364801F0DBFF12E000203649E1
:100C90000870364908800021314802F0B3F8324824
:100CA000007840F040003049087002212C4801F0E3
:100CB000C7FF03212A4802F0EBF810BD30B589B018
:100CC00005460C460121C80200F048FF012104201E
:100CD00000F044FF4FF48070ADF8200018208DF82C
:100CE000230003208DF8220008A91C4800F07CFA9C
:100CF000ADF81850ADF814400020ADF81A00ADF86A
:100D0000160005A91A4801F08DFA7020ADF804000C
:100D10000120ADF806000020ADF80A000220ADF871
:100D20000C0001A9124801F0BAFA0821104801F09C
:100D300005FF01210E4801F0D1FE01210C4801F010
:100D4000D9FD01210A4801F0C9FD09B030BD0000FC
:100D50000004004084812142000C01400008014051
:100D6000000C0040881A00201A0000201C000020FF
:100D7000002C014008B5684604F01AF808BD08B513
:100D8000684604F05FF808BD38B504466A46082195
:100D900020460AF05DFB38BD10B5424800780128B6
:100DA00005D103F047FF0AF0DFFD03F054FF10BD4B
:100DB00010B56FF0040000F099F93B4800683B491A
:100DC000B0FBF1F03A490870374800683749B0FB8A
:100DD000F1F438480068C910B1FBF0F044433548DD
:100DE00000684FF47A71B1FBF0F0334908804FF09E
:100DF000E020006940F002004FF0E0210861084661
:100E00004461006940F00100086110BD2DE9F04720
:100E1000074600264FF0E020D0F8149024480078D0
:100E200007FB00F800BFFFF7A5FF4FF0E020856942
:100E300011E04FF0E0208469AC420CD0AC4202D209
:100E4000281B064403E0A9EB040028440644254679
:100E5000464500D300E0ECE700BFFFF790FFBDE898
:100E6000F08770B504460F480078A0B113480078A9
:100E700088B911480088844206DB0F48008894FB3B
:100E8000F0F52846FFF780FF0B48008894FBF0F14F
:100E900000FB114084B24FF47A7104FB01F0FFF7BC
:100EA000B5FF70BD710000200400002000127A0020
:100EB0001E000020DCDB0008200000207000002065
:100EC000014600BF704700BF4C4A128812F0400F25
:100ED000FAD0C2B2494B1B1D1A80704710B586B0BC
:100EE0000446012144F2040000F038FE434800F0BB
:100EF000C7FA4FF40070ADF8140003208DF8160007
:100F000018208DF8170005A93D4800F06DF94FF441
:100F10008060ADF8140004208DF8170005A938484A
:100F200000F062F925208DF8000003208DF8010003
:100F30008DF8020001208DF80300684600F08BF860
:100F400001940020ADF80800ADF80A00ADF80C00DF
:100F5000ADF810000C20ADF80E0001A9274800F0F4
:100F6000D2FA012240F22551244800F064FB01210D
:100F7000224800F054FB06B010BD10B503F05AFE35
:100F800040F225511D4800F03BFC10B31B4800F017
:100F9000B7FBC4B21B48008810F4004F2BD119488E
:100FA000008810F4804F0CD00A2C03D00020154983
:100FB000088020E01348008840F400401149088070
:100FC00019E00D2C06D10F48008840F480400D49EF
:100FD000088010E00B480088C0F30D000A490C544B
:100FE00008480088401C0749088008460088C72830
:100FF00001DD0020088003F02EFE10BD0038014006
:101000000008014024000020921A0020094880476F
:1010100009480047FEE7FEE7FEE7FEE7FEE7FEE7DA
:10102000FEE7FEE7FEE7FEE704480549054A064BF2
:10103000704700009D07000831010008883B002030
:1010400088450020883D0020883D0020314901432B
:10105000314A1160704770B5002100230F22C47817
:101060000CB32D4C246804F4E064C4F5E064210A58
:10107000C1F10403CA40447804FA03F184781440AF
:1010800021430901254C0678A155047804F01F0579
:101090000124AC4005786D114FF0E02606EB850584
:1010A000C5F8004109E0047804F01F050124AC40B4
:1010B0001B4D0678761145F8264070BD194A0A4046
:1010C0000243154B1B1F1A60704739B1124A121D9B
:1010D00012680243104B1B1D1A6006E00E4A121DD7
:1010E000126882430C4B1B1D1A607047042808D1FC
:1010F0004FF0E021096941F004014FF0E022116155
:1011000007E04FF0E021096921F004014FF0E022EF
:10111000116170470000FA050CED00E000E400E00A
:1011200080E100E080FFFF1F10B50446CA488442FA
:1011300008D10121042000F02BFD0021042000F043
:1011400027FD46E0C548844208D10121082000F06F
:101150001FFD0021082000F01BFD3AE0C04884423A
:1011600008D10121102000F013FD0021102000F013
:101170000FFD2EE0BB48844208D10121202000F061
:1011800007FD0021202000F003FD22E0B648844244
:1011900008D10121402000F0FBFC0021402000F09C
:1011A000F7FC16E0B148844208D10121802000F00C
:1011B000EFFC0021802000F0EBFC0AE0AC48844208
:1011C00007D10121801500F0E3FC0021A01500F0FB
:1011D000DFFC10BD10B50121084600F0D9FC00214C
:1011E000012000F0D5FC10BD2DE9F041024600259C
:1011F0000026002000230024002791F803C00CF0F3
:101200000F0591F803C01CF0100F03D091F802C035
:101210004CEA050591F800C0BCF1000F31D014680C
:1012200000202BE04FF0010C0CFA00F3B1F800C0E5
:101230000CEA03069E4220D183004FF00F0C0CFAFB
:1012400003F7BC4305FA03FC4CEA040491F803C01D
:10125000BCF1280F06D14FF0010C0CFA00FCC2F8CB
:1012600014C00AE091F803C0BCF1480F05D14FF05B
:10127000010C0CFA00FCC2F810C0401C0828D1D3A5
:101280001460B1F800C0BCF1FF0F34DD54680020D9
:101290002EE000F1080C4FF0010808FA0CF3B1F849
:1012A00000C00CEA03069E4221D183004FF00F0CD0
:1012B0000CFA03F7BC4305FA03FC4CEA040491F86A
:1012C00003C0BCF1280F05D100F1080C08FA0CF896
:1012D000C2F8148091F803C0BCF1480F07D100F1A7
:1012E000080C4FF0010808FA0CF8C2F81080401CF6
:1012F0000828CED35460BDE8F0814FF6FF7101801D
:10130000022181700421C170704702460020936859
:101310000B4201D0012000E00020704701468868A0
:1013200080B2704702460020D3680B4201D00120F2
:1013300000E0002070470146C86880B27047016134
:101340007047416170470AB1016100E04161704737
:10135000C16070474FF480320A43826181618261CB
:1013600082698269704702460020424B18684FF636
:101370008073184040EA021008433E4B18607047E3
:101380003D49C8617047F0B50A460023002400219A
:10139000002500F00046B6F1004F02D1354EF1694C
:1013A00001E0344E7168C0F3034583B200F4401687
:1013B000B6F5401F08D121F070612E4E766826F0F8
:1013C00070662C4F7E6012E000F48016B6F5801F28
:1013D00006D1032606FA05F4A14341F0706106E048
:1013E000460D360103FA06F6B14341F0706122B1B1
:1013F000460D360103FA06F6314300F00046B6F119
:10140000004F02D11B4EF16101E01A4E7160F0BD38
:1014100030B500228B071C0F0F2303FA04F2154B83
:1014200008338C1053F824309343124C08348D1039
:1014300044F8253023468C1053F824308C07240FB1
:1014400000FA04F423430B4C08348D1044F8253083
:1014500030BD0A490860704700080140000C014097
:10146000001001400014014000180140001C014020
:10147000002001400000014000002042DC0020422A
:1014800010B50446FB48844209D10121880300F0CD
:101490007FFB00214FF4804000F07AFB32E0F648F9
:1014A000844209D10121480400F07FFB00214FF460
:1014B000003000F07AFB25E0F048844209D1012198
:1014C000880400F072FB00214FF4802000F06DFBD7
:1014D00018E0EB48844209D10121C80400F065FB03
:1014E00000214FF4002000F060FB0BE0E54884424F
:1014F00008D10121080500F058FB00214FF48010AD
:1015000000F053FB10BD2DE9F04786B005460E46AE
:101510000024A24600BFA1460027B08900B100BF49
:101520002F462C8A4CF6FF700440F08804432C822E
:10153000AC894EF6F3100440B088318908437189B4
:1015400008430443AC81AC8A4FF6FF400440B089A5
:101550000443AC8201A800F094FAC648874202D145
:10156000DDF810A001E0DDF80CA0A88910F4004F10
:1015700008D00AEBCA0000EB0A1031684900B0FB42
:10158000F1F807E00AEBCA0000EB0A1031688900A5
:10159000B0FBF1F86420B8FBF0F0040120096421ED
:1015A00001FB1089A88910F4004F08D0322000EB0D
:1015B000C900B0FBF1F000F00700044308E032205E
:1015C00000EB09106421B0FBF1F000F00F000443C0
:1015D0002C8106B0BDE8F0874FF416510160002160
:1015E0008180C18001810C2141810021818170476E
:1015F00010B502460020108A4FF2FF0318400B88F6
:101600004C8823438C882343CC882343184310827F
:1016100010BD0021018041808180C180704721B1CF
:10162000828942F40052828104E082894DF6FF7380
:101630001A4082817047F0B5034600240026002539
:101640000020A1F510676A3F00D100BF1846C1F322
:10165000421401F01F06012707FA06F5012C01D1FB
:101660000C3004E0022C01D1103000E014301AB12B
:1016700007682F43076002E00768AF430760F0BDCB
:101680001AB1838A0B43838202E0838A8B4383826D
:101690007047028A4FF6F0731A400282028A0A43A8
:1016A0000282704782894FF2FF731A4082818289D9
:1016B0000A438281704721B1828942F0020282810D
:1016C00004E082894FF6FD731A4082817047028AD6
:1016D0004FF6DF731A400282028A0A430282704781
:1016E00021B1028A42F48042028204E0028A4BF66F
:1016F000FF731A4002827047C1F30802828070476C
:1017000001468888C0F308007047818941F00101D3
:1017100081817047028BD2B20283028B42EA01229E
:1017200002837047028B02F47F420283028B0A43DA
:101730000283704721B1828A42F02002828204E053
:10174000828A4FF6DF731A408282704721B1828A03
:1017500042F01002828204E0828A4FF6EF731A4050
:101760008282704721B1828A42F00802828204E0BC
:10177000828A4FF6F7731A408282704721B18289BC
:1017800042F40042828103E08289C2F30E02828128
:10179000704721B1828A42F40062828204E0828A28
:1017A0004FF2FF731A4082827047828A4FF6FB73B2
:1017B0001A408282828A0A438282704721B1828AD9
:1017C00042F00202828204E0828A4FF6FD731A40E0
:1017D0008282704702460020B1F5007F00D100BF31
:1017E00013880B4201D0012000E00020704701F473
:1017F0000072B2F5007F00D100BFCA43028070477B
:1018000070B502460024002300250020A1F51066D3
:101810006A3E00D100BFC1F3421501F01F0301264B
:1018200006FA03F3012D02D19689334006E0022D1A
:1018300002D1168A334001E0968A33400C12012609
:1018400006FA04F41688344013B10CB1012000E00C
:10185000002070BD10B500220023A1F510646A3C81
:1018600000D100BF0A1201249440A3B2DC430480DB
:1018700010BD000000380140004400400048004016
:10188000004C004000500040DD48006840F001007E
:10189000DB49086008464068DA490840D849486092
:1018A00008460068D8490840D549086008460068DD
:1018B00020F4802008600846406820F4FE0048605C
:1018C0004FF41F0088607047CD49096821F48031CA
:1018D000CB4A11601146096821F480211160B0F5EE
:1018E000803F03D0B0F5802F0ED106E0C4490968CF
:1018F00041F48031C24A116007E0C149096841F4EE
:10190000A021BF4A116000E000BF00BF704710B5C2
:1019100001460022002300204A11012A02D1B84CBE
:10192000236806E0022A02D1B54C236A01E0B44CD8
:10193000636A01F01F02012494401C4201D001207F
:1019400000E0002010BD38B50020009000240025E4
:1019500000BF3120FFF7DBFF05460098401C0090D8
:101960000098B0F5A06F01D0002DF2D03120FFF724
:10197000CEFF08B1012400E00024204638BD014616
:1019800000209F4A106820F0F80040EAC100106073
:1019900070479E490860704702460020984B58687F
:1019A00020F47C1042EA01031843954B58607047BD
:1019B00096490866704701460020914A506820F019
:1019C00003000843506070478D48406800F00C00E9
:1019D0007047014600208A4A506820F0F000084312
:1019E0005060704701460020854A506820F4E0604E
:1019F00008435060704701460020814A506820F437
:101A0000605040EAC1005060704729B17C4A527A68
:101A100002437B4B5A7204E0794A527A8243784BF4
:101A20005A7270477A490860704701460020744A2C
:101A3000506820F440400843506070470021754AC8
:101A400011706F4A82F82010012802D0042808D1B2
:101A500003E001216F4A117004E005216D4A117005
:101A600000E000BF00BF70476B49086070476449E1
:101A7000096A0143624A1162704767494439086044
:101A8000704730B500210022002400235C4D6D68B2
:101A900005F00C0121B1042905D0082923D105E066
:101AA0005E4D056022E05D4D05601FE0544D6D68A0
:101AB00005F47012524D6D6805F48034022505EB73
:101AC00092421CB9564D554305600BE04C4D6D6874
:101AD00015F4003F03D0524D5543056002E04F4DD1
:101AE0005543056002E04D4D056000BF00BF444D09
:101AF0006D6805F0F00109094A4D6B5C0568DD4031
:101B000045603F4D6D6805F4E061090A454D6B5C29
:101B10004568DD4085603A4D6D6805F46051C90A3D
:101B2000404D6B5C4568DD40C560354D6D6805F422
:101B30004041890B3C4D6B5CC568B5FBF3F5056115
:101B400030BD29B12E4A526902432D4B5A6104E03F
:101B50002B4A526982432A4B5A61704729B1284A5D
:101B600092690243264B9A6104E0254A92698243B6
:101B7000234B9A61704729B1214AD2690243204B15
:101B8000DA6104E01E4AD26982431D4BDA61704774
:101B900029B11B4AD2680243194BDA6004E0184AA3
:101BA000D2688243164BDA60704729B1144A126931
:101BB0000243134B1A6104E0114A12698243104B2D
:101BC0001A61704714494039086070470F49C8646A
:101BD00070470B49C87170470948406A40F08070EF
:101BE00007494862704701460020054A92680A4248
:101BF00001D0012000E00020704701498872704741
:101C0000001002400000FFF8FFFFF6FE0000424215
:101C1000D8004242201002408004424200127A0062
:101C200000093D002C0000203C00002010B50446B7
:101C3000FA48844208D101214015FFF7A9FF00218D
:101C40006015FFF7A5FF17E0F548844208D1012190
:101C50000015FFF79DFF00212015FFF799FF0BE00E
:101C6000F048844208D10121C803FFF791FF002109
:101C70004FF40040FFF78CFF10BD30B50246002046
:101C800000235068E84C20400D790C6844EA052494
:101C9000204350609068E54C2040D1E902542C4329
:101CA0004D7944EA450420439060D06A20F47000E6
:101CB0000C7C641EE4B2234340EA0350D06230BD82
:101CC00000210160017141718160C16001210174D5
:101CD000704721B1826842F00102826003E08268AD
:101CE00022F001028260704721B1826842F4807262
:101CF000826003E0826822F480728260704710B5CF
:101D00000023CBB21AB144681C43446002E044682B
:101D10009C43446010BD816841F0080181607047B8
:101D2000014600208A6812F0080F01D0012000E06F
:101D300000207047816841F00401816070470146CE
:101D400000208A6812F0040F01D0012000E000207A
:101D5000704721B1826842F4A002826003E0826889
:101D600022F4A00282607047014600208A6812F4C3
:101D7000800F01D0012000E00020704710B50A4616
:101D800000210023416821F46041531E41EA4331A0
:101D9000416010BD21B1426842F40062426003E03C
:101DA000426822F4006242607047F0B504460D4676
:101DB00000200021092D11DDE068A5F10A0606EBDF
:101DC0004607072606FA07F18843A5F10A0606EB3F
:101DD000460603FA06F10843E0600CE0206905EBD3
:101DE0004507072606FA07F1884305EB450603FA7F
:101DF00006F108432061072A0FDA606B561E06EBD6
:101E000086071F2606FA07F18843561E06EB86064C
:101E100005FA06F10843606322E00D2A0FDA206B11
:101E2000D61F06EB86071F2606FA07F18843D61F42
:101E300006EB860605FA06F10843206310E0E06A27
:101E4000A2F10D0606EB86071F2606FA07F1884366
:101E5000A2F10D0606EB860605FA06F10843E062DC
:101E6000F0BD21B1826842F48012826003E0826892
:101E700022F48012826070470146C86C80B27047BD
:101E800066484C300068704721B1426842F4806275
:101E9000426003E0426822F480624260704721B1F0
:101EA000426842F48052426003E0426822F4805269
:101EB000426070470A460021816821F4E0411143E5
:101EC0008160704721B1826842F40042826003E081
:101ED000826822F400428260704721B1826842F435
:101EE0000212826003E0826822F40212826070476C
:101EF000014600208A6812F4001F01D0012000E092
:101F000000207047F0B50446154600200022002648
:101F1000092911DDE068A1F10A0707EB470C072743
:101F200007FA0CF29043A1F10A0707EB470703FAFF
:101F300007F21043E0600CE0206901EB410C072739
:101F400007FA0CF2904301EB410703FA07F2104342
:101F50002061A06BC0F30156EF1C06F1010CA7EB4A
:101F60000C0707EB870C1F2707FA0CF29043EF1CB6
:101F700006F1010CA7EB0C0707EB870701FA07F244
:101F80001043A063F0BD10B50A4600210023816B09
:101F900021F44011531E41EA0351816310BD08B57D
:101FA000002300930090009B0B440093009B1A6059
:101FB00008BD08B5024600200090009201F12800FB
:101FC000009B184400900098006880B208BD0A4643
:101FD00000214168164B194011434160704741622E
:101FE000826270470A460021416821F01F011143B7
:101FF0004160704740B109490831096841F4000166
:10200000064A0832116007E004490831096821F4E2
:102010000001024A083211607047000000240140AC
:1020200000280140003C0140FFFEF0FFFDF7F1FFFA
:10203000FFFD3FFF0246002013680B4201D0012044
:1020400000E000207047CA430260704770B5024646
:102050000020002300240B125568CEB205EA0604C6
:1020600015681D4202D00CB1012000E0002070BDB7
:1020700000220A12D34303607047000010B50446E3
:10208000FE48844208D10121C014FFF781FD0021E0
:10209000E014FFF77DFDC4E0B4F1804F08D10121C9
:1020A0000846FFF782FD00210120FFF77EFDB8E022
:1020B000F348844208D101210220FFF776FD002178
:1020C0000220FFF772FDACE0EE48844208D1012106
:1020D0000420FFF76AFD00210420FFF766FDA0E061
:1020E000E948844208D101210820FFF75EFD002164
:1020F0000820FFF75AFD94E0E448844208D101210A
:102100001020FFF752FD00211020FFF74EFD88E060
:10211000DF48844208D101212020FFF746FD00213D
:102120002020FFF742FD7CE0DA48844208D10121FB
:102130004014FFF72DFD00216014FFF729FD70E02A
:10214000D548844209D10121C804FFF721FD0021AF
:102150004FF40020FFF71CFD63E0D048844209D112
:1021600001210805FFF714FD00214FF48010FFF74F
:102170000FFD56E0CA48844209D101214805FFF706
:1021800007FD00214FF40010FFF702FD49E0C548AC
:10219000844208D101214020FFF707FD00214020A3
:1021A000FFF703FD3DE0C048844208D101218020B3
:1021B000FFF7FBFC00218020FFF7F7FC31E0BB4874
:1021C000844208D101218015FFF7EFFC0021A01502
:1021D000FFF7EBFC25E0B648844209D10121080451
:1021E000FFF7D6FC00214FF48030FFF7D1FC18E058
:1021F000B048844209D101214804FFF7C9FC0021FD
:102200004FF40030FFF7C4FC0BE0AB48844208D128
:1022100001218804FFF7BCFC00214FF48020FFF768
:10222000B7FC10BD00220288944B98420ED0994B07
:1022300098420BD0B0F1804F08D0914B984205D016
:10224000904B984202D0904B984204D14FF68F7336
:102250001A404B881A438D4B984207D08C4B9842BA
:1022600004D04FF6FF431A40CB881A4302808B8874
:1022700083850B880385814B98420BD0854B984210
:1022800008D08B4B984205D08A4B984202D08A4B9B
:10229000984201D10B7A038601238382704770B57F
:1022A000002400220023058C4FF6FE76354005847D
:1022B000028C8388048B4FF68F752C40B51E2C4002
:1022C0000D882C43751E2A400D892A434D882A43C8
:1022D0006A4DA8420BD06F4DA84208D0744DA84259
:1022E00005D0744DA84202D0734DA84213D14FF6C9
:1022F000F7752A404D892A434FF6FB752A408D8891
:102300002A434FF6FF652B404FF6FF552B408D8932
:102310002B43CD892B4383800483CD88858602841B
:1023200070BD70B5002400220023058C4FF6EF76B7
:1023300035400584028C8388048B48F6FF752C4059
:102340004FF6FF452C400D884FF6FF7606EA05252F
:102350002C434FF6DF752A400D8906EA05152A43FE
:102360004D8806EA05152A43444DA84202D0494D3E
:10237000A8421DD14FF67F752A404D894FF6FF7652
:1023800006EA05152A434FF6BF752A408D8806EAEE
:1023900005152A434FF6FF352B404FF2FF752B40B2
:1023A0008D8906EA85052B43CD8906EA85052B43F1
:1023B00083800483CD880587028470BD70B50024B6
:1023C00000220023058C4FF6FF6635400584028C01
:1023D0008388848B4FF68F752C404FF6FC752C400C
:1023E0000D882C434FF6FF552A400D894FF6FF7696
:1023F00006EA05252A434D8806EA05252A431F4D8E
:10240000A84202D0234DA8421DD14FF2FF752A40A9
:102410004D894FF6FF7606EA05252A434FF6FF352C
:102420002A408D8806EA05252A434EF6FF752B4083
:102430004DF6FF752B408D8906EA05152B43CD8996
:1024400006EA05152B4383808483CD888587028423
:1024500070BD70B5002200230024058C4EF6FF7677
:1024600035400584038C8488828B48F6FF752A40AA
:102470004FF6FF452A400D8820E00000002C014067
:102480000004004000080040000C00400010004024
:102490000014004000340140004C01400050014055
:1024A0000054014000180040001C00400020004083
:1024B0000040014000440140004801404FF6FF76D3
:1024C00006EA05252A434DF6FF752B400D8906EADD
:1024D00005352B434D8806EA05352B43FA4DA842B6
:1024E00002D0FA4DA84208D14BF6FF752C408D89D9
:1024F0004FF6FF7606EA85152C4384808283CD88CB
:10250000A0F84050038470BD828B4FF2FF331A4015
:102510008283828B4FF6FF7303EA01231A4382837F
:102520007047F0B50C461546002200210026078CA6
:102530004EF6FF7C07EA0C070784828B018C4FF66E
:10254000FF7707EA043640F6FF473A404FF6FF7739
:1025500007EA05273A434FF6FF7707EA03373A437E
:10256000D94FB8420ED0D94FB8420BD0B0F1804FFE
:1025700008D0D74FB84205D0D64FB84202D0D64F78
:10258000B84206D14DF6FF77394046F480573943BB
:1025900005E047F6FF57394044F4805739438283BA
:1025A0000184F0BD828B4FF6F3731A408283828BD5
:1025B0000A4382837047F0B50C461546002200217D
:1025C0000026078C4FF6FF6C07EA0C070784828B06
:1025D000018C4FF6FF7707EA04264FF60C773A4056
:1025E0004FF6FF7707EA03172F433A43B64FB84237
:1025F0000ED0B64FB8420BD0B0F1804F08D0B44FD8
:10260000B84205D0B34FB84202D0B34FB84206D15A
:102610004FF6FF57394046F48077394305E04FF2D3
:10262000FF57394044F48077394382830184F0BDF9
:10263000028B4FF2FF331A400283028B4FF6FF7377
:1026400003EA01231A4302837047F0B50C4615468E
:10265000002200210026078C4FF6EF7C07EA0C07CA
:102660000784028B018C4FF6FF7707EA041640F6C9
:10267000FF473A404FF6FF7707EA03373A434FF6F2
:10268000FF7707EA05273A438F4FB8420ED08F4FA6
:10269000B8420BD0B0F1804F08D08D4FB84205D072
:1026A0008C4FB84202D08C4FB84206D14FF6DF773C
:1026B000394046F01007394305E04FF65F7739405F
:1026C00044F01007394302830184F0BD028B4FF6BA
:1026D000F3731A400283028B0A4302837047F0B5FA
:1026E0000C46154600220021068C4FF6FE773E4030
:1026F0000684028B018C4FF60C7632407E1C06EA73
:1027000003162E433243704EB0420ED06F4EB0428D
:102710000BD0B0F1804F08D06D4EB04205D06D4E59
:10272000B04202D06C4EB04206D14FF6FD76314039
:1027300044F00106314305E04FF6F576314044F0B0
:102740000106314302830184F0BD70B505460C4695
:102750005D4885420ED05D4885420BD0B5F1804F73
:1027600008D05B48854205D05A48854202D05A4875
:10277000854200D100E000BF208850B92389A2889B
:1027800061882846FFF7ABFFE1882846FFF79EFFE8
:1027900025E0208804280AD12389A2886188284658
:1027A000FFF753FFE1882846FFF742FF17E0208834
:1027B00008280AD12389A28861882846FFF7FBFEF2
:1027C000E1882846FFF7EEFE09E02389A2886188A8
:1027D0002846FFF7A6FEE1882846FFF795FE70BD64
:1027E0002DE9F04105460C4600260127608808B90E
:1027F000022600E00026A088012801D1022700E07F
:1028000001272088A0B92389A28861882846FFF77C
:1028100066FFE1882846FFF759FF23893A4631468B
:102820002846FFF712FFE1882846FFF701FF13E073
:102830002389A28861882846FFF707FFE188284698
:10284000FFF7F6FE23893A4631462846FFF747FF51
:10285000E1882846FFF73AFFBDE8F0810A884B88F7
:102860001A438B881A43CB881A430B891A434B8926
:102870001A438B891A43A0F8442070474FF6FF7122
:10288000818000210180C180418001727047002158
:10289000018041808180C180018141818181C1812C
:1028A0007047002101804180012181800021C18089
:1028B000018170470021018041808180C1800181B8
:1028C0004181818170470000002C014000340140AB
:1028D0000004004000080040000C004021B10288C4
:1028E00042F00102028004E002884FF6FE731A40B3
:1028F0000280704731B1B0F8442042F40042A0F8A1
:10290000442005E0B0F84420C2F30E02A0F84420B1
:1029100070471AB183890B43838102E083898B431B
:10292000838170478182704741EA0203A0F84830F2
:1029300070471AB183890B43838102E083898B43FB
:102940008381704701894FF6F87211400181704709
:102950000A46002101894FF68F7319401143018106
:10296000704730B504460D4629462046FFF7F0FF74
:10297000208940F00700208130BD2DE9F041044658
:102980000D4616461F46602D06D13B4601223146B4
:102990002046FFF75AFE05E03B460122314620461D
:1029A000FFF79DFE29462046FFF7D2FF208940F021
:1029B00007002081BDE8F08130B50C460021018977
:1029C000C9B24FF6FF7505EA032515432543294390
:1029D000018130BD2DE9F04105460E461746984667
:1029E000002443463A4631462846FFF7E5FF2C8946
:1029F0004FF6F870044044F007044FF68F7004401F
:102A000044F070042C81BDE8F081F0B504460D4619
:102A100016461F463B46324629462046FFF7CCFF66
:102A2000208940F480402081F0BD0185828270477A
:102A30000A46002101884FF68F7319401143018027
:102A40007047F0B50C4615461E46002100220023B3
:102A50000189028B038C4FF6F877394021434FF6FA
:102A6000FC473A4040F201173A434FF6DD773B40CE
:102A70004FF6FF7707EA06172F433B430181028396
:102A80000384F0BD0A460021018B4FF68F73194075
:102A90001143018370470A460021018B48F6FF73FA
:102AA00019404FF6FF7303EA02231943018370476D
:102AB0000A460021818B4FF68F73194011438183A1
:102AC00070470A460021818B48F6FF7319404FF684
:102AD000FF7303EA022319438183704721B10288FF
:102AE00042F08002028004E002884FF67F731A40B1
:102AF0000280704721B1828842F00402828004E0A3
:102B000082884FF6FB731A408280704721B1828819
:102B100042F00802828004E082884FF6F7731A4080
:102B20008280704721B1828842F00102828004E0F5
:102B300082884FF6FE731A40828070470A46002151
:102B4000018B4FF6F77319401143018370470A4612
:102B50000021018B4FF2FF7319404FF6FF7303EA18
:102B600002231943018370470A460021818B4FF6E7
:102B7000F77319401143818370470A460021818B06
:102B80004FF2FF7319404FF6FF7303EA0223194314
:102B9000818370470A460021018B4FF6FB73194071
:102BA0001143018370470A460021018B4FF6FF3322
:102BB00019404FF6FF7303EA02231943018370475C
:102BC0000A460021818B4FF6FB7319401143818324
:102BD00070470A460021818B4FF6FF3319404FF6AC
:102BE000FF7303EA02231943818370470A460021D9
:102BF000018B4FF67F7319401143018370470A46DA
:102C00000021018BC1F30E014FF6FF7303EA02238B
:102C10001943018370470A460021818B4FF67F7369
:102C200019401143818370470A460021818BC1F30B
:102C30000E014FF6FF7303EA0223194381837047A5
:102C40000A460021018C4FF6FD731940114301849F
:102C500070470A460021018C4FF6F7731940114363
:102C6000018470470A460021018C4FF6DF7319403A
:102C70004FF6FF7303EA02131943018470470A46B3
:102C80000021018C4FF67F7319404FF6FF7303EA62
:102C900002131943018470470A460021018C4FF644
:102CA000FF5319404FF6FF7303EA022319430184CF
:102CB00070470A460021018C4FF2FF7319404FF60E
:102CC000FF7303EA02231943018470470A46002177
:102CD000018C4DF6FF7319404FF6FF7303EA023380
:102CE00019430184704730B5002301248C40A3B2FE
:102CF000048C9C430484048C02FA01F5ADB22C438D
:102D0000048430BD30B5002304248C40A3B2048C6D
:102D10009C430484048C02FA01F5ADB22C43048474
:102D200030BD70B503460020002418461830012538
:102D30008D40ACB21D8CA5431D8409B1082909D171
:102D400000EB6100056825F0700505600568154316
:102D500005600EE00D1FC5F34E052844056825F4F7
:102D6000E045056005684FF6FF7606EA0226354322
:102D7000056070BD21B1028842F00202028004E0C9
:102D800002884FF6FD731A400280704721B1028815
:102D900042F00402028004E002884FF6FB731A40FE
:102DA0000280704721B1828842F08002828004E074
:102DB00082884FF67F731A408280704702884FF6F0
:102DC000F7731A40028002880A43028070478288A3
:102DD0004FF68F731A40828082880A438280704740
:102DE00002894FF6F8731A40028102890A43028170
:102DF000704702894FF67F731A40028102890A43A5
:102E00000281704781847047818570478186704751
:102E10000187704781877047A0F84010704702888B
:102E20004FF6FF431A40028002880A43028070472F
:102E30000146888E70470146088F70470146888F8B
:102E400070470146B1F8400070470146888C7047D2
:102E50000146088D704702460020138A0B4201D0BC
:102E6000012000E000207047CA430282704730B55D
:102E70000246002000230024158A05EA01039589F3
:102E800005EA010413B10CB1012000E0002030BDBF
:102E9000CA4302827047000000B585B06846FEF75D
:102EA000F0FD019805B000BD10B5FFF7F5FF044631
:102EB0001748006840F080701549086000201549E7
:102EC00048600846006840F001000860204600F0B5
:102ED000B6F810BD0F49486870472DE9F0478246A3
:102EE000FFF7DAFF4FF0000980460B4A0023404607
:102EF000494609F0A2FA064632460B4650460021E2
:102F000009F09BFA04460D4620462946BDE8F087A5
:102F1000FCED00E0001000E040420F0010B500247E
:102F200000BF00BF00F056F9044600BF00BF1021EB
:102F3000A34800F0D6FA00BF00BF204600F04EF9CB
:102F400000BF00BF10BD10B5FFF7E8FF10BD10B502
:102F500000209C490860FFF7A7FF10BD10B5FFF7E0
:102F6000F6FFFFF7F0FF10BD00BFFEE770B50546A6
:102F70000C46002614B900BFFFF7F6FF15B90A206A
:102F8000208070BD00BF00BF00F024F9064600BFDE
:102F900000BF10228A49284600F05AFF00BF00BF38
:102FA000304600F01BF900BF00BF0020208000BFAA
:102FB000E7E72DE9F04105460C46002714B900BFAC
:102FC000FFF7D2FF1DB90A202080BDE8F081102153
:102FD000284600F025FF0646102E15D200BF00BF80
:102FE00000F0F8F8074600BF00BF102229467448D9
:102FF00000F02EFF00BF00BF384600F0EFF800BF22
:1030000000BF0020208002E04FF47A70208000BFD3
:10301000DBE710B5FFF75EFF0446204610BD7047A2
:1030200000B5014611B900BFFFF79EFF654A106861
:1030300008B1002201E04FF4FA620A8000BD614944
:103040000860704770B50546284600F0CEF8044683
:10305000183C204670BD70B50546284600F0C5F8FE
:103060000446103C204670BD70B50546284600F069
:10307000BCF8044600BF204670BD30B502460B4682
:103080004FF0FF354FF00004AD1A9C4127D24FF0AE
:10309000FF352C0CAD1A9C410FD24FF0FF352C0A96
:1030A000AD1A9C4103D2190E474C605C45E0190CE7
:1030B000454C645C04F108003FE04FF0FF35FF240D
:1030C000AD1A9C4105D2190A3F4C645C04F1100012
:1030D00033E019463C4C645C04F118002DE04FF6D7
:1030E000FF750024AD1A9C4115D26FF07F45002476
:1030F000AD1A9C4107D2140E44EA0321324C645CA1
:1031000004F1200019E0140C44EA03412E4C645CE5
:1031100004F1280011E0FF250024AD1A9C4107D2DC
:10312000140A44EA0361284C645C04F1300004E0B2
:103130001146254C645C04F1380030BD70B504467E
:103140000CB9082070BD204600F052F8054628460C
:10315000F8E770B504460CB9102070BD204600F0A9
:1031600047F805462846F8E770B504460CB9202014
:1031700070BD204600F03CF805462846F8E72DE9EA
:10318000F04304460D464FF0000184EA010085EA51
:103190000101084302D14020BDE8F083E243E84347
:1031A000521C40F1000102EA040601EA050730461C
:1031B0003946FFF762FF8046C8F13F094846EBE712
:1031C0005A1B002040000020E4D9000872B6704766
:1031D00062B67047EFF3108072B6704780F31088C4
:1031E000704730BF704720BF7047B0FA80F070471B
:1031F00090FAA0F0B0FA80F0704790FAA0F0704713
:103200000146412903DB5A2901DC012200E00022AA
:10321000012A08D0612903DB7A2901DC012200E0C0
:103220000022012A01D1012200E00022104670474D
:103230000146412903DB5A2901DC012200E000227A
:10324000012A08D0612903DB7A2901DC012200E090
:103250000022012A01D1012200E00022012A08D027
:10326000302903DB392901DC012200E00022012A98
:1032700001D1012200E00022104670470146612979
:1032800003DB7A2901DC012200E0002210467047AE
:103290000146412903DB5A2901DC012200E000221A
:1032A000104670470146302903DB392901DC012231
:1032B00000E00022104670470146302903DB372921
:1032C00001DC012200E0002210467047014630294F
:1032D00001DB392907DD412901DB462903DD6129AD
:1032E00003DB662901DC012200E000221046704762
:1032F0000146202901D0092901D1012200E0002244
:10330000104670470146202909D00D2907D00A2907
:1033100005D00C2903D0092901D00B2901D10122A4
:1033200000E00022104670470146202903DB7E2979
:1033300001DC012200E000221046704701462129ED
:1033400003DB7E2901DC012200E0002210467047E9
:103350000146202903DB7E2901DC012200E0002256
:10336000012A35D1202909D00D2907D00A2905D0F5
:103370000C2903D0092901D00B2901D1012200E039
:1033800000222ABB412903DB5A2901DC012200E08B
:103390000022012A08D0612903DB7A2901DC0122FD
:1033A00000E00022012A01D1012200E00022012ACE
:1033B00008D0302903DB392901DC012200E000229A
:1033C000012A01D1012200E000220AB9012200E015
:1033D00000221046704701464AB2002A01DB1F292D
:1033E00001DD7F2901D1012200E000221046704753
:1033F0000146412903DB5A2901DC012200E00022B9
:10340000012A02D101F1200200E00A46D0B2704741
:103410000146612903DB7A2901DC012200E0002258
:10342000012A02D1A1F1200200E00A46D0B2704781
:10343000F0B504460B462046FFF7EAFF054618465E
:10344000FFF7E6FF0646B54201D1012000E000206B
:1034500007463846F0BD0000FC48FD4901600146C2
:10346000416000218160C160016141618161C16190
:1034700001620163C1624162F6498163C1634FF435
:103480008061016441640146F34A116070472DE98F
:10349000F04105460B4694460027002402E03F0217
:1034A0001F43641C042CFAD3604605F0030629462A
:1034B00046B1344603E001F8013B401E641C08B1EC
:1034C000042CF8D30A4601E080C2001F0428FBD276
:1034D000114602E001F8013B401E0028FAD1BDE888
:1034E000F08130B505460C46224600212846FFF7FC
:1034F000CEFF30BD2DE9F04F85B007468846914696
:1035000046463D46AE4207D94A464146384601F056
:103510001DF905B0BDE8F08F4C4607EB0900451ECC
:1035200008EB0900461EA81B04900498042834D315
:1035300005F00300029006F003010191DDE901109E
:10354000884201D1012000E000200090009801286D
:1035500023D10298032810D0029840B2039008E0CB
:1035600016F8010905F80109641E0398401E40B2CF
:10357000039014B103980028F2DAA5F1030AA6F12A
:10358000030B04E05BF804094AF80409241F042C27
:10359000F8D20AF103050BF1030604E016F801095D
:1035A00005F80109641E002CF8D100BFB1E72DE930
:1035B000F84F80468946154615B90120BDE8F88FB9
:1035C000B8F1000F01D10020F8E7B9F1000F01D1E7
:1035D0000020F3E70124294608EB050209EB050367
:1035E00002F0030C03F0030BDC4501D1012000E0E5
:1035F000002000900098012829D1BCF1000F12D0C2
:10360000E2460AE0521E5B1E107893F800E0704517
:1036100000D00024491EAAF1010A012C03D111B1E6
:10362000BAF1000FEED1012C11D116461F4608E069
:10363000361F3F1F3068D7F800E0704500D00024E7
:10364000091F012C01D10429F2D232463B4608E081
:10365000521E5B1E107893F800E0704500D00024E5
:10366000491E012C01D10029F2D12046A6E7F0B570
:1036700003460E461546D96BB1FBF5F005FB101C51
:10368000BCF1000F02D0A5EB0C0200E0002294195F
:10369000586CA04201D20020F0BD0F191144DF6325
:1036A000586C001B58640846F6E72DE9F0410646C1
:1036B0000F46B6FBF3FC03FB1C6109B15C1A00E08A
:1036C0000024B2FBF3FC03FB1C2109B15D1A00E0EE
:1036D000002502EB0508A7F1010C08FB0C4C0CEBD4
:1036E0000200BDE8F0812DE9FE4F80468946144670
:1036F0001E46002000900CB901AC00BF00202060E5
:10370000524F00BF00BFFFF765FD009000BF00BF34
:10371000F86B0290D7F844B04B464246012102981C
:10372000FFF7C3FF05465D450FD900BF00BF0098F6
:10373000FFF754FD00BF00BFA5EB0B00206042F275
:10374000E27030800020BDE8FE8F4A464146384690
:10375000FFF78DFF8246BAF1000F0CD100BF00BF0A
:103760000098FFF73BFD00BF00BF256042F2E2700A
:1037700030800020E7E700BF00BF0098FFF72EFD74
:1037800000BF00BF42F2107030805046DBE72DE9E9
:10379000FC5F07460C4690460020009000BF00BF2B
:1037A000FFF718FD009000BF00BFD7F80490D9F8CC
:1037B000380008B1484600E024488246DAF8445010
:1037C000DAF83CB000BF00BF0098FFF707FD00BF6C
:1037D00000BF012C0AD9BBFBF4F004FB10B60EB1FC
:1037E000A01B00E00020019001982D1A42F21070F9
:1037F000A8F800002846BDE8FC9F70B504460D46B9
:103800002A4621461148FFF7C2FF0646304670BDE2
:1038100018B942F211720A807047104A0260002201
:1038200042608260C260026142618261C261026282
:10383000826242630263C26242628263C263026462
:10384000426442F210720A8000BFE5E76C1B002060
:1038500048454150B41B0020440000204E4F4E45C7
:103860002DE9FF4F91B00446DDE92089002000904A
:10387000B8F1000F02D10DF1180800BF0020C8F800
:10388000000049462046FFF7C3FFB9F80000A0F545
:103890001C51103902D015B0BDE8F08FFE48006809
:1038A00020B942F2E770A9F80000F4E7DFF8ECA3D2
:1038B0000020059000BF00BFFFF78CFC009000BF08
:1038C00000BF129880BB5546AB462E46DAF83C0046
:1038D0000D9004231A4614990D98FFF7E6FE049004
:1038E00004990D9808440C90DDE91E2314990C9856
:1038F000FFF7DBFE0390DDE9030108440590DAF8E9
:1039000044700598B8427DD900BF00BF0098FFF70A
:1039100065FC00BF00BF0598C01BC8F8000042F25C
:10392000E270A9F80000B6E7FFE712980B90DDE916
:1039300012010844401E0A900025AB46D64806688E
:103940003BE0B16B1298814205D1316C13988142F2
:1039500001D1354633E0B06B0990316CB06B08444F
:10396000401E0890DDE90901814200D227E0099953
:103970000B98884203D8DDE9091088420FD20999D3
:103980000B98884203D308990A98884207D9089966
:103990000B9888420FD808990A9888420BD300BF29
:1039A00000BF0098FFF71AFC00BF00BF42F27F7013
:1039B000A9F800006FE7B346F668002EC1D100BF3A
:1039C00045B925461298A0631298E06313982064C5
:1039D00013986064DAF83C000D9004231A46149999
:1039E0000D98FFF762FE0490DAF844700498B8422C
:1039F00011D900BF00BF0098FFF7F0FB00BF00BF68
:103A0000049800E024E0C01BC8F8000042F2E27015
:103A1000A9F800003FE7E86B0C90DDE91E2314993C
:103A20000C98FFF742FE03906F6C0398B8420FD9D1
:103A300000BF00BF0098FFF7D1FB00BF00BF039895
:103A4000C01BC8F8000042F2D870A9F8000022E7B5
:103A5000149880000290042250460299FFF707FE56
:103A60000F900F9830BBDAF8447000BF00BF009889
:103A7000FFF7B4FB00BF00BF129858B90598B842D1
:103A800004D90598C01BC8F800000EE00598C8F8D6
:103A900000000AE00298B84204D90298C01BC8F896
:103AA000000002E00298C8F8000042F2E270A9F8B3
:103AB0000000F0E60020019034E02846DDE91E1207
:103AC000FFF7D5FD0E900E9820BBE86B0C906F6C45
:103AD00000BF00BF0098FFF781FB00BF00BF019946
:103AE0001498401A0790DDE91E2307990C98FFF7F8
:103AF000DCFD05900598B84204D90598C01BC8F8AC
:103B0000000002E00598C8F8000042F2D870A9F859
:103B10000000C0E6019ADDE90E0141F8220001989B
:103B2000401C0190149901988842C6D3A5420DD13A
:103B3000C4F808B0E660BBF1000F02D0CBF80C402F
:103B400001E0554804605EB1B46009E06869109016
:103B50002561109860616C61109808B1109804613B
:103B60004F48206065600C98A06103990C98084448
:103B7000401EE0610F9820620398A0621F98606366
:103B80001E9820631498E0621498606200BF00BF22
:103B90000098FFF723FB00BF00BF42F21070A9F8A6
:103BA000000000BF77E62DE9F04104460D460027EE
:103BB00000BF00BFFFF70EFB074600BF00BF666AED
:103BC00000BF00BF3846FFF709FB00BF00BF42F24D
:103BD000107028803046BDE8F0812DE9F0410446A0
:103BE00088461546002700BF00BFFFF7F3FA0746D7
:103BF00000BF00BF606A60B900BF00BF3846FFF772
:103C0000EDFA00BF00BF42F2DE7028800020BDE860
:103C1000F081E16A606A88420BD900BF00BF384674
:103C2000FFF7DCFA00BF00BF42F295702880002049
:103C3000EDE7606A401E6062D4E9080150F8216037
:103C400000BF00BF3846FFF7C9FA00BF00BF42F20D
:103C5000107028803046DAE72DE9F04704460F4619
:103C600015464FF0000900BF00BFFFF7B3FA8146C9
:103C700000BF00BFE06AC01B461EE06AB04213D816
:103C800000BF00BF4846FFF7A9FA00BF00BF42F2DD
:103C900095702880002005E0440000206C1B002067
:103CA000504F4F4CBDE8F087606AB0420BD900BF5F
:103CB00000BF4846FFF792FA00BF00BF42F295707E
:103CC00028800020E7E7206A50F8268000BF00BF68
:103CD0004846FFF783FA00BF00BF42F21070288009
:103CE0004046D8E72DE9F04704460E4617464FF008
:103CF000000A00BF00BFFFF76DFA824600BF00BF99
:103D0000E16A606A88420BD300BF00BF5046FFF7EC
:103D100065FA00BF00BF42F2DD703880BDE8F08771
:103D20004FF00008656A08E0206A50F82590B14518
:103D300002D14FF0010803E06D1CE06AA842F3D8FD
:103D400000BFB8F1010F06D1D4E9080150F82100F5
:103D5000216A41F82500D4E9080140F82160606A31
:103D6000401C606200BF00BF5046FFF737FA00BF3B
:103D700000BF42F21070388000BFCFE72DE9F84F46
:103D800004460F461646002000904FF0FF3B00BF50
:103D900000BFFFF71FFA009000BF00BFE16A606A32
:103DA00088420CD300BF00BF0098FFF717FA00BF8E
:103DB00000BF42F2DD7030805846BDE8F88F4FF00A
:103DC0000009656A08E0206A50F82580B84502D1EC
:103DD0004FF0010903E06D1CE06AA842F3D800BF70
:103DE000B9F1010F0FD1E06A401EA0EB050A00BF38
:103DF00000BF0098FFF7F2F900BF00BF42F2107059
:103E000030805046D9E700BF00BF0098FFF7E6F9C1
:103E100000BF00BF42F2887030805846CDE70000F6
:103E200010B502460B461146002001E0491C401C1B
:103E300019B10C780CB19842F8D310BD30B50446D6
:103E40004FF0FF312046FFF7EBFF0546284630BD17
:103E500070B504460D4616460CB9002070BD0DB96C
:103E60000020FBE721462A46002304E01078087072
:103E7000491C521C5B1C21B11AB1107808B1B34225
:103E8000F4D301B10AB90020E8E7B34201D200201F
:103E900008702046E2E770B504460D464FF0FF3249
:103EA00029462046FFF7D4FF0646304670BD70B560
:103EB00003460C4615460BB9002070BD0CB9002016
:103EC000FBE70DB91846F8E7194600E0491C11B1A7
:103ED00008780028FAD109B90020EEE7224600262A
:103EE00004E010780870491C521C761C21B11AB1EC
:103EF000107808B1AE42F4D301B10AB90020DCE772
:103F0000002008701846D8E770B504460D464FF0FB
:103F1000FF3229462046FFF7CAFF0646304670BDED
:103F20002DE9F04305460B469446BCF1000F02D143
:103F30000020BDE8F08335B90BB90020F9E7187807
:103F400042421046F5E713B92A781046F1E72946B0
:103F50001C460F4626467F1C761C4FF0000805E0E5
:103F6000491C641C7F1C761C08F10108087894F831
:103F70000090484505D1087818B117B10EB1E04559
:103F8000EED3E04501D10020D3E7087894F8009003
:103F9000484505D0087894F80090A0EB09020BE0A2
:103FA000087808B9002207E02FB90EB9002203E013
:103FB0003078424200E03A781046BAE770B50446DD
:103FC0000D464FF0FF3229462046FFF7A9FF06466F
:103FD000304670BD2DE9F74F82B080460E460498FA
:103FE00018B9002005B0BDE8F08FB8F1000F09D175
:103FF0000EB90020F6E73078FFF7FAF907467C4261
:104000002046EFE73EB998F80000FFF7F1F90546C2
:104010002C462046E6E7C146B246C846C346564649
:10402000CDF804A0D8460BF1010B019E701C019045
:10403000C84699F80000FFF7DBF9054656469AF89E
:104040000000FFF7D5F907460020009015E009F1C0
:1040500001090AF1010A0BF1010B0198401C0190C2
:104060000098401C009099F80000FFF7C1F9054640
:104070009AF80000FFF7BCF90746BD420BD199F84A
:10408000000040B1BBF1000F05D0019818B10499B0
:1040900000988842DBD304990098884201D100201F
:1040A000A0E7BD4201D0EC1B16E00DB9002413E0DF
:1040B000BBF1000F0AD1019808B900240CE0019966
:1040C0000878FFF795F907467C4205E09BF8000069
:1040D000FFF78EF905462C46204683E770B5044667
:1040E0000D464FF0FF3229462046FFF773FF064684
:1040F000304670BD30B504460B4615460CB900205D
:1041000030BD0BB90020FBE72146002201E0491C2D
:10411000521C31B1087820B10878A84201D09A42E7
:10412000F5D309B90020EBE79A4201D30020E7E775
:104130000878A84201D00020E2E70846E0E770B521
:1041400005460C4622464FF0FF312846FFF7D2FFC6
:104150000646304670BD2DE9F04305460E4617462B
:1041600015B90020BDE8F0830EB90020FAE72C460F
:10417000A6F1010949462046FFF752FE8046444415
:104180000CB90020EEE700E0641EAC4202D02078BB
:10419000B842F9D12078B84201D00020E2E72046A9
:1041A000E0E770B505460C4622464FF0FF31284641
:1041B000FFF7D1FF0646304670BD70B504460D4688
:1041C00016460CB9002070BD0BB90020FBE7214654
:1041D0001A4605E00878A84200D10E70491C521E0C
:1041E00019B1087808B1002AF4D12046EBE7F0B500
:1041F00004460D4616464FF0FF3332462946204608
:10420000FFF7DBFF07463846F0BD2DE9FF4F0646B6
:104210000F4615461EB9002004B0BDE8F08F0FB957
:104220000020F9E70DB90020F6E7681C00D001E096
:104230004FF0FF30039029463046FFF7F1FD8046EE
:1042400038460399FFF7ECFD04460CB93046E3E726
:10425000444501D90020DFE706EB080BBBF1000F56
:1042600001D10020D8E707EB040BBBF1000F01D10F
:104270000020D1E7A8EB040002904FF000090020D5
:10428000019000BF06EB09000090224639460098D5
:10429000FFF746FE8246BAF1000F01D1012000E08F
:1042A0000020019009F10109019810B90298814597
:1042B000E8D9BAF1000F01D00020ADE70098ABE7D4
:1042C00070B504460D464FF0FF3229462046FFF7F1
:1042D0009CFF0646304670BD2DE9FF4F8DB00F465E
:1042E00015461A9E1D9818B9002011B0BDE8F08F30
:1042F000002003900490012F01DA01200390022D89
:1043000001D3242D01D90120039096B33046FFF745
:104310000BF802900298012802D00120039028E0B7
:10432000302E26D0A6F13000C0B207901B9801288D
:1043300004D0A6F14100C0B2069003E0A6F16100EE
:10434000C0B206900A2D02D80798A84209DB0A2DB0
:1043500009D907980A2804D3A5F10A0006998842CA
:1043600001D9012000E0002005900598012800D126
:1043700003901D9C0398002846D1DDF834A0DDF899
:1043800034A0CDF830A001200B9007E00B98401C22
:10439000C0B20B900C98B0FBF5F00C900C98A842B2
:1043A000F4D21098012800D100E0002009900B9968
:1043B00009980844B84225DC002001900B98B842C7
:1043C00001DA0B9800E038460A903EB1B8460A98E8
:1043D000391A0998081AC0B2089006E0DDE90910F8
:1043E000084400F0FF08002008900898002806DD27
:1043F000302E01D1012000E00020049004E00020D4
:10440000049001E001200390039800B1B8464444B1
:104410001C9808B100202070641E4FF0000941E094
:104420000398A8BBBAF1000F02D1B9F1000F1CD15B
:10443000BAFBF5F005FB10A000F0FF0BBBF10A0F73
:1044400004D20BF1300004F801090BE01B9801289D
:1044500004D00BF1370004F8010903E00BF1570019
:1044600004F80109BAFBF5FA1AE01098012810D1F6
:10447000049808B9019828B1049850B1A8F1010036
:10448000484506D12D2004F801090120019007E0DC
:1044900003E02EB104F8016902E03F2004F80109AD
:1044A00009F10109C145BBD3039808B100201CE7FD
:1044B0001D981AE72DE9FF5F05460E4617461C4674
:1044C000DDE90F9ADDF8388000233A463146284668
:1044D0008DE81007FFF700FF8346584604B0BDE89B
:1044E000F09F2DE9FF4F85B0044689461F46DDE960
:1044F00013AB002C02DA6542012601E025460026B6
:1045000012983346CDE902ABCDE900704946284602
:10451000079AFFF7E1FE8046404609B0BDE8F08FFC
:104520002DE9FF4F8BB0064689461546B9F1000FBD
:1045300002D10DF1240900BFC9F80060189810B924
:1045400007A8189000BF0021189801701EB900201C
:104550000FB0BDE8F08F012D01D0242D01D900202E
:10456000F6E734462078FEF7CDFE039004E0641CA5
:104570002078FEF7C7FE039003980128F7D0207833
:104580002B2802D02D280BD103E0641C4FF0000B28
:1045900009E00E98012800D1641C4FF0010B02E0E5
:1045A0004FF0000B00BF00BF0A9425B1082D1CD0AE
:1045B000102D36D11EE02078302814D1641C2078CC
:1045C000582802D078280BD100BF102567783846CC
:1045D000FEF77CFE8246BAF1010F00D1641C01E0B7
:1045E000082500BF00E00A251CE02078302800D113
:1045F000641C17E02078302812D1641C20785828D9
:1046000002D078280AD100BF67783846FEF75EFEF0
:104610008246BAF1010F00D1641C00E000BF00BF68
:1046200000E000BF00BF4FF00008002002900190A2
:1046300040E027783846FEF7FBFD059005980128F5
:1046400036D13846FEF72EFE06900698012804D192
:10465000A7F13000C0B208900FE03846FEF70EFE1A
:1046600004900498012804D1A7F15700C0B2089023
:1046700003E0A7F13700C0B208900898A84214DA06
:10468000029880B9304850F82500404509D308FB0E
:1046900005F8089880440898804504D201200290CB
:1046A00001E001200290641C04E00120019001E07F
:1046B0000120019001980028BBD00298012801D167
:1046C0004FF0FF380A98844202D0C9F8004001E058
:1046D000C9F80060189880F800B0404638E7F8B58F
:1046E00004460D46164600200346324629460090F1
:1046F0002046FFF715FF07463846F8BD2DE9FC4177
:1047000005460E46174601A801233A463146009059
:104710002846FFF705FF04469DF8040040B9B4F1B0
:10472000004F02D36FF0004000E02046804607E0D3
:10473000B4F1004F02D34FF0004000E060428046E9
:104740004046BDE8FC810000E8DA0008002800D1FE
:104750007047002900D17047002A00D170472DE929
:10476000F81F00F0030301F00304A34211D1C3F1C9
:10477000040303F00303012B1DD3012A00D2F2E04E
:1047800011F8014B00F8014BA3F10103A2F1010262
:10479000F1E700F0010301F00104A34200D094E02E
:1047A000012B44D311F8014B00F8014BA3F1010395
:1047B000A2F10102F4E7B2F5B47F26D3B1E8F81F05
:1047C000A0E8F81FB1E8F81FA0E8F81FB1E8F81F4B
:1047D000A0E8F81FB1E8F81FA0E8F81FB1E8F81F3B
:1047E000A0E8F81FB1E8F81FA0E8F81FB1E8F81F2B
:1047F000A0E8F81FB1E8F81FA0E8F81FB1E8F81F1B
:10480000A0E8F81FA2F5B472D5E7282A06D3B1E8CC
:10481000F81FA0E8F81FA2F12802F6E7042A06D341
:1048200051F8043B40F8043BA2F10402F6E7202AC9
:1048300042D331F8023B20F8023B31F8023B20F82A
:10484000023B31F8023B20F8023B31F8023B20F8F2
:10485000023B31F8023B20F8023B31F8023B20F8E2
:10486000023B31F8023B20F8023B31F8023B20F8D2
:10487000023B31F8023B20F8023B31F8023B20F8C2
:10488000023B31F8023B20F8023B31F8023B20F8B2
:10489000023B31F8023B20F8023B31F8023B20F8A2
:1048A000023B31F8023B20F8023B31F8023B20F892
:1048B000023BA2F12002BAE7022A06D331F8023BFA
:1048C00020F8023BA2F10202F6E7102A42D311F8C7
:1048D000013B00F8013B11F8013B00F8013B11F8E6
:1048E000013B00F8013B11F8013B00F8013B11F8D6
:1048F000013B00F8013B11F8013B00F8013B11F8C6
:10490000013B00F8013B11F8013B00F8013B11F8B5
:10491000013B00F8013B11F8013B00F8013B11F8A5
:10492000013B00F8013B11F8013B00F8013B11F895
:10493000013B00F8013B11F8013B00F8013B11F885
:10494000013B00F8013B11F8013B00F8013BA2F1EB
:104950001002BAE7012A06D311F8013B00F8013B27
:10496000A2F10102F6E7BDE8F81F704715481648A6
:1049700016481748174818481848194819481A4837
:104980001A481B481B481C481C481D481D481E4807
:104990001E481F481F4820482048214821482248D7
:1049A00022482348234824482448254825482648A7
:1049B000264827482748284828482948294800BF2A
:1049C000704700001CDC00087CDB000880DB00086E
:1049D00084DB000888DB00088CDB000890DB000823
:1049E00094DB000898DB00089CDB0008A0DB0008D3
:1049F000A4DB0008A8DB0008ACDB0008B0DB000883
:104A0000B4DB0008B8DB0008BCDB0008C0DB000832
:104A1000C4DB0008C8DB0008CCDB0008D0DB0008E2
:104A2000D4DB0008D8DB0008DCDB0008E0DB000892
:104A3000E4DB0008E8DB0008ECDB0008F0DB000842
:104A4000F4DB0008F8DB0008FCDB000800DC0008F1
:104A500004DC000808DC00080CDC000810DC00089E
:104A600014DC000818DC0008002400BF19E000BFB7
:104A700000BFFEF7AFFB044600BF00BFF748006869
:104A8000401CF6490860F6480068401CF44908607C
:104A900000BF00BF2046FEF7A1FB00BF00BF07F02C
:104AA00095FBE4E710B58AB004460020EB490860A6
:104AB0000B2000210591CDE9070406910846E9493C
:104AC0000968E94A1268E94B1B68CDE90132CDE972
:104AD00003103F200023AFF26F02E5A10090E948E8
:104AE00004F0A0FD0AB010BD00210AE001EB410274
:104AF000E54B03EB820000220281026042604A1C07
:104B0000D1B24029F2D3704770B5044607F066FB76
:104B10000020DE490870DE490870DE490870DE4971
:104B20000860DE490860DE490870DE490870DE4929
:104B30000870DE490860DE490860DE490860DE4929
:104B40000870DE4800680A21B0FBF1F0DC4908601B
:104B5000DC48006858B1DC48056845B1D9480668AA
:104B600003E0761E002028602D1D002EF9D10020C4
:104B7000D6490860D6490860D6490860D649086019
:104B8000D6490860D6490860D6490860D6490870F9
:104B900003F022F8FFF7A8FF204601F053FE20881B
:104BA00000B170BD204602F088F9208800B1F8E716
:104BB000204602F0AEF9208800B1F2E7204602F06C
:104BC000F3FF208800B1ECE7204603F09DFC20882D
:104BD00000B1E6E7204604F0B3F8208800B1E0E732
:104BE000204606F08AF9208800B1DAE7204601F075
:104BF000A8FF208800B1D4E72046FFF753FF2088A4
:104C000000B1CEE7204606F0D4FA208800B1C8E70C
:104C1000204604F051FB208800B1C2E7204607F08F
:104C200030FA208800B1BCE700F02EFEFFF79EFEB0
:104C300000BFB6E796480078012800D07047934837
:104C40000078FA2800DBF9E790480078401C8F498B
:104C5000087000BFF2E710B500248D4800780128E5
:104C600000D010BD00BFFEF7B5FA044600BF87486C
:104C7000007828B900BF2046FEF7B0FA00BFF0E781
:104C800082480078401E8149087008460078002854
:104C900005DD00BF2046FEF7A1FA00BFE1E77D4831
:104CA0000078002805DD00BF2046FEF797FA00BF18
:104CB000D7E702F09BFF7B4908700846007800EBBD
:104CC0004000714951F820007449086008460068A6
:104CD00071490968884205D100BF2046FEF77EFA77
:104CE00000BFBEE76D480068D0F89000401C6B49DB
:104CF0000968C1F890007D480068401C7B49086045
:104D00004FF080507A49086000BF2046FEF766FAEF
:104D100000BF00BFA5E710B500245C48007800285C
:104D200000DD10BD5B480078002800DDF9E700BF1A
:104D3000FEF750FA044600BF02F058FF59490870C8
:104D40000846007800EB40004F4951F820005349D5
:104D500008600846006850490968884205D100BFCC
:104D60002046FEF73BFA00BFDBE74C480068D0F86E
:104D70009000401C49490968C1F890005B480068F0
:104D8000401C5A4908604FF080505949086000BFE4
:104D90002046FEF723FA00BF00BFC2E710B53D482A
:104DA0000078012803D1FEF795F84049086010BD4E
:104DB00070B50446002535480078002803DD46F626
:104DC0006250208070BD32480078012803D045F63B
:104DD00089602080F6E72F480078FA2803DB45F247
:104DE00009202080EEE700BF00BFFEF7F3F905467B
:104DF00000BF00BF27480078401C26490870FFF715
:104E0000CDFF00BF00BF2846FEF7E8F900BF00BF96
:104E10000020208000BFD5E710B51E48007880B97B
:104E2000FEF758F821490968441A21480068A04251
:104E300001D21F4804601F480068A04201D21D48EB
:104E4000046010BD70B504460025104800780028A5
:104E500050DD46F66550208070BD00006C000020DB
:104E6000D000002084DB000880DB00087CDB000829
:104E700075432F4F532D4949492049646C6520548F
:104E800061736B0044340020D8350020700000208E
:104E900071000020B8000020100100201401002043
:104EA0009E0000209F000020A0000020AC000020F9
:104EB000B0000020B4000020C0000020DCDB0008AF
:104EC000BC000020ACDB0008A8DB0008500000207C
:104ED00054000020580000205C00002060000020EA
:104EE0006400002068000020EE000020E4000020A4
:104EF00004ED00E0F9480078012803D045F6896008
:104F0000208070BDF648007818B946F664502080BD
:104F1000F7E700BF00BFFEF75DF9054600BF00BF21
:104F2000EF480078401EEE490870084600780028D7
:104F30000ADD00BF00BF2846FEF750F900BF00BFE2
:104F400046F663502080DCE7FFF766FF00BF00BF36
:104F50002846FEF743F900BF00BFFFF7DCFE002044
:104F6000208000BFCDE72DE9F04105460C461646EE
:104F7000002700BF00BFFEF72DF9074600BF00BFA6
:104F8000012D03D00020D749087002E00120D54947
:104F9000087014B1D448046006E0D44800680A21BF
:104FA000B0FBF1F0D049086000BF00BF3846FEF703
:104FB00015F900BF00BF00203080BDE8F08110B5BA
:104FC00001460C8924B1012C03D0022C0CD101E044
:104FD00000BF14E008684A6802610024C4601461DC
:104FE000D0600A6048600AE008684A68C368002424
:104FF0001C61C4600261D0600B60486000BF00BFEC
:1050000010BD2DE9F04104460027B948007800287A
:1050100004DD48F2D1402080BDE8F081B04800783E
:10502000002803DD46F663502080F5E7AD480078A0
:10503000012803D046F67B102080EDE700BF00BFBB
:10504000FEF7C8F8074600BF00BFAA48007800EB8B
:105050004000A94901EB8006308902280ADA00BF26
:1050600000BF3846FEF7BAF800BF00BF46F67A1018
:105070002080D1E73046FFF7A2FF3568686D18B988
:1050800099480068A86501E0686DA86500BF00BF89
:105090003846FEF7A3F800BF00BFFFF73CFE002034
:1050A000208000BFB8E710B504468C480078E8B906
:1050B00002F09CFD91490870084600788D490870FF
:1050C0008E48007800EB40008B4951F820008C4955
:1050D0000860084600688B49086001207F49087015
:1050E00008F0AAFA43F69920208002E045F68A608B
:1050F000208010BD01460020088047F25C607047A8
:1051000030B548B14568C1F8C05000F108042268C4
:1051100093681D6AC56113E091F83450022D02D0E6
:10512000072D08D103E078A5C1F8C05007E078A5A5
:10513000C1F8C05003E079A5C1F8C05000BF00BF5E
:1051400030BDF0B58E6896F8375007893FB9012712
:10515000078100274F600F600160416023E00789ED
:105160007F1C0781026806E0946894F83770AF42AC
:1051700000DD02E05268002AF6D100BF32B90027F4
:105180004F6043680B60596041600CE017682FB9AD
:10519000116000270F604A60016004E013680B6033
:1051A0004A6059601160F0BD10B5C28701630023E9
:1051B0000AE000244C600C600C614C610C83CC61F3
:1051C000886020315C1CA3B29342F2DB10BD2DE954
:1051D000F041054695F8370000EB4000464901EBE9
:1051E00080042F69EE6887B946B9002020812060CD
:1051F000606095F8370002F01BFD0EE02089401E2C
:10520000208100203061266007E02089401E208137
:10521000FE600EB9676000E0376100202861E86039
:10522000BDE8F08138B504460D4685B16B460222D3
:105230002946204605F0FEFFBDF8000018B90320FE
:1052400084F8360006E0022084F8360002E00220EE
:1052500084F836002046FFF7BAFF38BD2DE9F0414B
:1052600005460C4616461F462648006880F83460FE
:1052700000202449096881F8350039462148006832
:10528000FFF7D0FF6CB104F10808EC600122294659
:105290001C480068FFF788FF29464046FFF751FF8A
:1052A00006E0002017490968C8871649096808639D
:1052B000144801682046FFF723FFBDE8F08110B5D0
:1052C0000489012C03D100240460446033E00C689D
:1052D00034BB4A680024146002602CE07100002096
:1052E000B8000020C0000020BC000020DCDB00086B
:1052F000700000209E000020D83500209F00002074
:1053000014010020100100205461736B2051000033
:105310005461736B2053656D000000002000000095
:105320004C6824B90B6800245C60436003E00B68A0
:105330004A685A6013600489641E048100244C602A
:105340000C6010BD2DE9F0410446256BE68F0AE0A4
:10535000D5F80C8008F1080729463846FFF7AFFF5B
:105360002035701E86B2002EF2DC0020E08720631C
:10537000BDE8F08130B50346086BCC8F08E0C56806
:105380009D4202D10361C26104E02030651EACB2CF
:10539000002CF4DC00BF30BD10B590F8373003EBC3
:1053A0004303FE4C04EB83010B893BB901230B81C2
:1053B0000023C36003610860486009E00B895B1C3F
:1053C0000B810B68C360002303610A6810610860E9
:1053D00010BD10B590F8373003EB4303EF4C04EBEE
:1053E00083010B893BB901230B810023C360036157
:1053F0000860486008E00B895B1C0B810023C360D8
:105400004A680261D060486010BD10B5044694F847
:10541000370002F0FDFB94F83700E1490978884233
:1054200003D12046FFF7D5FF02E02046FFF7B4FF87
:1054300010BD10B50446204605F086FD94F83600F0
:1054400010F0040F02D12046FFF7DFFF10BD70B54A
:1054500005460C46164694F8360008284DD2DFE87B
:1054600000F00405080906072A2B00BF00BF00BF93
:1054700044E000BF94F83400032804D132462146AA
:105480002846FFF777FF0020E065A4F86000266457
:1054900015B12046FFF756FF2046FFF7CAFF002050
:1054A00004F13404A0704FF0010060704FF0000070
:1054B00004F8340922E000BF94F83400032804D132
:1054C000324621462846FFF755FF0020E065A4F844
:1054D0006000266415B12046FFF734FF204605F032
:1054E00033FD042004F13404A0704FF0010060701B
:1054F0004FF0000004F8340900E000BF00BF70BDA9
:1055000030B5AFF2E815C1F8C05000F108042268C8
:105510001AB193681D6AC56102E0AFF20025C5614A
:1055200030BD2DE9F04304460F4684F83770256BF3
:10553000B4F83E8013E0D5F80C9009F108063089E4
:10554000012807D929463046FFF7B9FE29463046DB
:10555000FFF7F7FD2035A8F101001FFA80F8B8F138
:10556000000FE8D1BDE8F0830021016041600181B6
:10557000704703895B1C038103684B6000230B6049
:10558000026802B1116001600389012B00D1416002
:10559000704730B50346086BCC8F08E0C5689D4264
:1055A00002D10361C26104E02030651EACB2002C60
:1055B000F4DC00BF30BD70B506460C46154694F8C5
:1055C000360008284BD2DFE800F00405080906077A
:1055D000292A00BF00BF00BF42E000BF94F834009A
:1055E000032804D12A4621463046FFF7D2FF002087
:1055F000E065A4F8600025642046FFF7A3FE20467E
:10560000FFF717FF002004F13404A0704FF00200F0
:1056100060704FF0000004F8340921E000BF94F8F6
:105620003400032804D12A4621463046FFF7B1FF53
:105630000020E065A4F860002564204605F084FCA5
:105640002046FFF77FFE042004F13404A0704FF0E1
:10565000020060704FF0000004F8340900E000BF61
:1056600000BF70BDF0B50446059E086BCD8F0AE003
:10567000C768A74204D1046142610383C66104E0A4
:1056800020306F1EBDB2002DF2DC00BFF0BD2DE951
:10569000F84306460C4617469846089D94F836008F
:1056A000082853D2DFE800F00405080906072C2D6E
:1056B00000BF00BF00BF4AE000BF94F834000328D9
:1056C00007D143463A46214630460095FFF7CAFFC8
:1056D00003E0E765A4F86080256436B12046FFF753
:1056E00031FE21463046FFF70BFF2046FFF7A1FEB3
:1056F000002004F13404A070607004F8340926E03E
:1057000000BF94F83400032807D143463A462146A7
:1057100030460095FFF7A6FF03E0E765A4F8608038
:105720002564204605F010FC36B12046FFF70AFE3E
:1057300021463046FFF7E4FE042004F13404A07053
:105740004FF00000607004F8340900E000BF00BFB3
:10575000BDE8F88310B5002400BFFDF73BFD04460B
:1057600000BF00200F4908700F4810490860084624
:105770000068D0F89000401C0968C1F890000C48FF
:105780000068401C0A4908604FF0805009490860D1
:1057900000BF2046FDF722FD00BF10BDD835002018
:1057A0009E0000209F0000200835002014010020EA
:1057B000E400002004ED00E070B5054600262E4808
:1057C0000078012800D070BD00BF00BFFDF702FDCA
:1057D000064600BF00BF2C683CB900BF00BF304682
:1057E000FDF7FCFC00BF00BFEDE72448844207D171
:1057F00000BF00BF3046FDF7F1FC00BF00BFE2E78D
:10580000A06D10B1A06D401EA065A06D38B100BFA5
:1058100000BF3046FDF7E2FC00BF00BFD3E7288998
:10582000022807DA00BF00BF3046FDF7D7FC00BFF3
:1058300000BFC8E712480078002807DD00BF00BF9E
:105840003046FDF7CBFC00BF00BFBCE72846FFF7A2
:10585000B6FB2C68606D18B90A480068A06501E0C5
:10586000606DA06500BF00BF3046FDF7B7FC00BF0C
:1058700000BF00BFA7E70000C000002044340020A4
:10588000B8000020BC0000202448254825482648B0
:1058900026482748274828482848294829482A4888
:1058A0002A482B482B482C482C482D482D482E4858
:1058B0002E482F482F483048304831483148324828
:1058C00032483348334834483448354835483648F8
:1058D00036483748374838483848394839483A48C8
:1058E0003A483B483B483C483C483D483D483E4898
:1058F0003E483F483F484048404841484148424868
:105900004248434843484448444845484548464837
:1059100046484748474800BF7047000020DC000861
:1059200088DD000822DC000823DC000824DC0008F5
:1059300028DC00082CDC000829DC000854DC000806
:1059400055DC000856DC000858DC00085ADC00086A
:105950005CDC00085EDC000860DC000880DC00081D
:1059600082DC000884DC000886DC000888DC000893
:105970008ADC00088CDC0008B8DC0008B9DC000810
:10598000BADC0008BCDC0008BEDC0008BFDC000894
:10599000C0DC0008C2DC0008C4DC0008C6DC00086B
:1059A000C8DC0008CADC0008CCDC0008FCDC00080D
:1059B000FDDC0008FEDC0008FFDC000800DD00085C
:1059C00002DD000804DD00082CDD00082DDD0008E4
:1059D0002EDD00082FDD000830DD000832DD000874
:1059E00034DD000838DD000839DD00083ADD000844
:1059F0003BDD00083CDD00083DDD00083EDD000821
:105A00003FDD000840DD000842DD000843DD0008FE
:105A100044DD000846DD000848DD000849DD0008D7
:105A20004CDD000880DD000881DD000882DD000813
:105A300084DD000886DD0008F7A1C1610021416115
:105A4000F649096811B90021816105E0F349096847
:105A50008161F24909684861F049086070472DE9A1
:105A6000F04104460E4617461D464FF00008EC482C
:105A70000078002804DD42F6E1602880BDE8F0816E
:105A80001CB945F6C3502880F8E700BF00BF00BF2F
:105A9000FDF7A0FB804600BF00BFE2480078401C35
:105AA000E049087000BF00BF4046FDF797FB00BF0C
:105AB00000BF00BFDC482060666027620020606293
:105AC00004F10800FFF750FD2046FFF7B5FFD74867
:105AD0000088401CD549088000BF00BF00BFFDF70B
